:020000040000FA
:020000000328D3
:040002000034003492
:0A000600831203138501831603170C
:100010008801890183160313850186018701880100
:1000200089010313831285018601870188018901F3
:1000300003138316003088000F30870083120510E9
:100040000130860085147C2385107C230C308600CB
:1000500085147C2385107C233C30860085147C230A
:1000600085107C238C2105107C23C03086007723EB
:1000700005147C23A920421C3A284008A400421001
:10008000A920421C40284008A5004210A920421C7B
:1000900046284008A6004210A920421C4C284008CF
:1000A000A7004210A920421C52284008A800421074
:1000B000A920421C58284008A9004210A920421C2F
:1000C0005E284008B0004210A920421C6428400865
:1000D000B100421005107C23D03086007723051430
:1000E0007C23A920421C71284008B2004210A9209C
:1000F000421C77284008B3004210A920421C7D28EA
:100100004008B4004210A920421C83284008B500D2
:100110004210A920421C89284008B6004210A9209C
:10012000421C8F284008B7004210A920421C952885
:100130004008B8004210A920421C9B284008B90082
:100140004210D42186238623862386238623862372
:10015000862308140718C4208718D8200719EC2014
:10016000081088140718002187181421071928215E
:1001700087193C2188100815071850218718642119
:1001800007197821081108000330C00033308600B9
:100190007723862305107C231030860077230514EF
:1001A0007C232A308600772342140718D5280800BC
:1001B0000630C000363086007723862305107C2366
:1001C00010308600772305147C232A30860077239D
:1001D00042148718E92808000930C0003930860029
:1001E0007723862305107C2310308600772305149F
:1001F0007C232A308600772342140719FD28080043
:100200000230C000323086007723862305107C231D
:1002100010308600772305147C232A30860077234C
:1002200042140718112908000530C0003530860037
:100230007723862305107C2310308600772305144E
:100240007C232A308600772342148718252908004A
:100250000830C000383086007723862305107C23C1
:1002600010308600772305147C232A3086007723FC
:1002700042140719392908000030C00030308600C8
:100280007723862305107C231030860077230514FE
:100290007C232A3086007723421487194D290800D1
:1002A0000130C000313086007723862305107C237F
:1002B00010308600772305147C232A3086007723AC
:1002C00042140718612908000430C0003430860049
:1002D0007723862305107C231030860077230514AE
:1002E0007C232A308600772342148718752908005A
:1002F0000730C000373086007723862305107C2323
:1003000010308600772305147C232A30860077235B
:10031000421407198929080005107C2380308600C3
:10032000772305147C2357308600772352308600CC
:100330007723493086007723543086007723453071
:10034000860077232030860077234B308600772382
:100350004530860077235930860077233A3086006F
:10036000772305107C2390308600772305147C23A7
:10037000523086007723453086007723413086004F
:1003800077234430860077232030860077234B3054
:1003900086007723453086007723593086007723FF
:1003A0003A308600772308002408C0003208C006CF
:1003B000401C40180E222508C0003308C006401C0F
:1003C00040180E222608C0003408C006401C401801
:1003D0000E222708C0003508C006401C40180E2217
:1003E0002808C0003608C006401C40180E22290804
:1003F000C0003708C006401C40180E223008C0005C
:100400003808C006401C40180E223108C0003908C8
:10041000C006401C40180E22C12208009923051076
:100420007C2380308600772305147C235830860097
:10043000772358308600772358308600772358304A
:10044000860077235830860077235830860077233C
:10045000583086007723583086007723583086003E
:10046000772358308600772358308600772358301A
:10047000860077235830860077235830860077230C
:1004800058308600772358308600772305107C2368
:10049000C5308600772305147C23493086007723F6
:1004A0004E30860077235430860077235230860002
:1004B00077235530860077235330860077234F30DB
:1004C0008600772305107C2394308600772305145B
:1004D0007C234430860077234530860077235430D0
:1004E00086007723453086007723433086007723C4
:1004F00054308600772341308600772344308600CD
:1005000077234F308600772305107C23D030860078
:10051000772305147C2358308600772358308600D3
:100520007723583086007723583086007723583059
:10053000860077235830860077235830860077234B
:10054000583086007723583086007723583086004D
:100550007723583086007723583086007723583029
:10056000860077235830860077235830860077231B
:1005700058308600772308147C23871DBB2A8C29DA
:100580000800992305107C23813086007723051409
:100590007C233A3086007723293086007723203069
:1005A000860077233A308600772329308600772328
:1005B0002030860077233A30860077232930860062
:1005C00077232030860077233A308600772329303E
:1005D000860077232030860077233A308600772301
:1005E000293086007723203086007723203086004C
:1005F000772305107C23C4308600772305147C23E1
:1006000041308600772344308600772345308600CA
:1006100077234C30860077234130860077234E3095
:100620008600772354308600772345308600772371
:1006300005107C2394308600772305147C234330F7
:10064000860077234F30860077234D30860077234E
:100650005030860077234130860077234E30860065
:1006600077234530860077235230860077234F303A
:100670008600772305107C23D1308600772305146C
:100680007C233A3086007723293086007723203078
:10069000860077233A308600772329308600772337
:1006A0002030860077233A30860077232930860071
:1006B00077232030860077233A308600772329304D
:1006C000860077232030860077233A308600772310
:1006D000293086007723203086007723203086005B
:1006E000772308147C23871D712B8C29080085141F
:1006F0007C2385107C230800A0010A30A100503023
:10070000A000A00B812BA10B7F2B08007F30A30042
:10071000A30B882B1430A00000003E30A100000085
:100720004A30A200A20B922BA10B8F2BA00B8C2B7B
:10073000080005100130860085147C2385107C2379
:100740000C30860085147C2385107C233C30860089
:0A07500085147C2385107C2308002B
:02400E00F42C90
:02401000FF3F70
:00000001FF
